{
  "_format": "hh-sol-artifact-1",
  "contractName": "Tweet",
  "sourceName": "contracts/Tweet.sol",
  "abi": [
    {
      "inputs": [],
      "stateMutability": "nonpayable",
      "type": "constructor"
    },
    {
      "anonymous": false,
      "inputs": [
        {
          "indexed": true,
          "internalType": "address",
          "name": "account",
          "type": "address"
        },
        {
          "indexed": true,
          "internalType": "uint256",
          "name": "userid",
          "type": "uint256"
        },
        {
          "indexed": false,
          "internalType": "string",
          "name": "tweetTxt",
          "type": "string"
        }
      ],
      "name": "tweetCreated",
      "type": "event"
    },
    {
      "inputs": [],
      "name": "_idUser",
      "outputs": [
        {
          "internalType": "uint256",
          "name": "",
          "type": "uint256"
        }
      ],
      "stateMutability": "view",
      "type": "function"
    },
    {
      "inputs": [
        {
          "internalType": "string",
          "name": "_message",
          "type": "string"
        }
      ],
      "name": "createTweet",
      "outputs": [],
      "stateMutability": "nonpayable",
      "type": "function"
    },
    {
      "inputs": [
        {
          "internalType": "uint256",
          "name": "",
          "type": "uint256"
        }
      ],
      "name": "creators",
      "outputs": [
        {
          "internalType": "address",
          "name": "",
          "type": "address"
        }
      ],
      "stateMutability": "view",
      "type": "function"
    },
    {
      "inputs": [],
      "name": "getAddress",
      "outputs": [
        {
          "internalType": "address[]",
          "name": "",
          "type": "address[]"
        }
      ],
      "stateMutability": "view",
      "type": "function"
    },
    {
      "inputs": [],
      "name": "getMessage",
      "outputs": [
        {
          "internalType": "string[]",
          "name": "",
          "type": "string[]"
        }
      ],
      "stateMutability": "view",
      "type": "function"
    },
    {
      "inputs": [
        {
          "internalType": "address",
          "name": "_address",
          "type": "address"
        }
      ],
      "name": "getTweetData",
      "outputs": [
        {
          "internalType": "address",
          "name": "",
          "type": "address"
        },
        {
          "internalType": "uint256",
          "name": "",
          "type": "uint256"
        },
        {
          "internalType": "string",
          "name": "",
          "type": "string"
        }
      ],
      "stateMutability": "view",
      "type": "function"
    },
    {
      "inputs": [],
      "name": "owner",
      "outputs": [
        {
          "internalType": "address",
          "name": "",
          "type": "address"
        }
      ],
      "stateMutability": "view",
      "type": "function"
    },
    {
      "inputs": [
        {
          "internalType": "address",
          "name": "",
          "type": "address"
        }
      ],
      "name": "tweetApps",
      "outputs": [
        {
          "internalType": "address",
          "name": "account",
          "type": "address"
        },
        {
          "internalType": "uint256",
          "name": "userid",
          "type": "uint256"
        },
        {
          "internalType": "string",
          "name": "tweetTxt",
          "type": "string"
        }
      ],
      "stateMutability": "view",
      "type": "function"
    },
    {
      "inputs": [
        {
          "internalType": "uint256",
          "name": "",
          "type": "uint256"
        }
      ],
      "name": "tweetmessage",
      "outputs": [
        {
          "internalType": "string",
          "name": "",
          "type": "string"
        }
      ],
      "stateMutability": "view",
      "type": "function"
    },
    {
      "inputs": [
        {
          "internalType": "uint256",
          "name": "",
          "type": "uint256"
        }
      ],
      "name": "tweetmessageId",
      "outputs": [
        {
          "internalType": "uint256",
          "name": "",
          "type": "uint256"
        }
      ],
      "stateMutability": "view",
      "type": "function"
    }
  ],
  "bytecode": "0x608060405234801561001057600080fd5b50336000806101000a81548173ffffffffffffffffffffffffffffffffffffffff021916908373ffffffffffffffffffffffffffffffffffffffff16021790555061120f806100606000396000f3fe608060405234801561001057600080fd5b506004361061009e5760003560e01c80638da5cb5b116100665780638da5cb5b1461017157806394432cc51461018f578063c044c448146101ad578063cd53d08e146101dd578063ce6d41de1461020d5761009e565b806304d0cd21146100a357806338cc4831146100d5578063556f4e2d146100f35780635f13abf0146101255780637c9cd2bc14610155575b600080fd5b6100bd60048036038101906100b89190610958565b61022b565b6040516100cc93929190610a3d565b60405180910390f35b6100dd61038d565b6040516100ea9190610b39565b60405180910390f35b61010d60048036038101906101089190610958565b61041b565b60405161011c93929190610a3d565b60405180910390f35b61013f600480360381019061013a9190610b87565b6104ed565b60405161014c9190610bb4565b60405180910390f35b61016f600480360381019061016a9190610c34565b610511565b005b6101796106e8565b6040516101869190610c81565b60405180910390f35b61019761070c565b6040516101a49190610bb4565b60405180910390f35b6101c760048036038101906101c29190610b87565b610712565b6040516101d49190610c9c565b60405180910390f35b6101f760048036038101906101f29190610b87565b6107be565b6040516102049190610c81565b60405180910390f35b6102156107fd565b6040516102229190610dca565b60405180910390f35b60008060606000600560008673ffffffffffffffffffffffffffffffffffffffff1673ffffffffffffffffffffffffffffffffffffffff1681526020019081526020016000206040518060600160405290816000820160009054906101000a900473ffffffffffffffffffffffffffffffffffffffff1673ffffffffffffffffffffffffffffffffffffffff1673ffffffffffffffffffffffffffffffffffffffff168152602001600182015481526020016002820180546102ec90610e1b565b80601f016020809104026020016040519081016040528092919081815260200182805461031890610e1b565b80156103655780601f1061033a57610100808354040283529160200191610365565b820191906000526020600020905b81548152906001019060200180831161034857829003601f168201915b5050505050815250509050806000015181602001518260400151935093509350509193909250565b6060600280548060200260200160405190810160405280929190818152602001828054801561041157602002820191906000526020600020905b8160009054906101000a900473ffffffffffffffffffffffffffffffffffffffff1673ffffffffffffffffffffffffffffffffffffffff16815260200190600101908083116103c7575b5050505050905090565b60056020528060005260406000206000915090508060000160009054906101000a900473ffffffffffffffffffffffffffffffffffffffff169080600101549080600201805461046a90610e1b565b80601f016020809104026020016040519081016040528092919081815260200182805461049690610e1b565b80156104e35780601f106104b8576101008083540402835291602001916104e3565b820191906000526020600020905b8154815290600101906020018083116104c657829003601f168201915b5050505050905083565b600481815481106104fd57600080fd5b906000526020600020016000915090505481565b6105196108d6565b600060015490506000600560003373ffffffffffffffffffffffffffffffffffffffff1673ffffffffffffffffffffffffffffffffffffffff1681526020019081526020016000209050338160000160006101000a81548173ffffffffffffffffffffffffffffffffffffffff021916908373ffffffffffffffffffffffffffffffffffffffff16021790555083838260020191826105b9929190611032565b508181600101819055506002339080600181540180825580915050600190039060005260206000200160009091909190916101000a81548173ffffffffffffffffffffffffffffffffffffffff021916908373ffffffffffffffffffffffffffffffffffffffff1602179055506003848490918060018154018082558091505060019003906000526020600020016000909192909192909192909192509182610663929190611032565b50600482908060018154018082558091505060019003906000526020600020016000909190919091505580600101543373ffffffffffffffffffffffffffffffffffffffff167f7168866b8ba28a4137e480f3a405a53839a5ae1f03d04736482af953bf0e30d386866040516106da92919061113e565b60405180910390a350505050565b60008054906101000a900473ffffffffffffffffffffffffffffffffffffffff1681565b60015481565b6003818154811061072257600080fd5b90600052602060002001600091509050805461073d90610e1b565b80601f016020809104026020016040519081016040528092919081815260200182805461076990610e1b565b80156107b65780601f1061078b576101008083540402835291602001916107b6565b820191906000526020600020905b81548152906001019060200180831161079957829003601f168201915b505050505081565b600281815481106107ce57600080fd5b906000526020600020016000915054906101000a900473ffffffffffffffffffffffffffffffffffffffff1681565b60606003805480602002602001604051908101604052809291908181526020016000905b828210156108cd57838290600052602060002001805461084090610e1b565b80601f016020809104026020016040519081016040528092919081815260200182805461086c90610e1b565b80156108b95780601f1061088e576101008083540402835291602001916108b9565b820191906000526020600020905b81548152906001019060200180831161089c57829003601f168201915b505050505081526020019060010190610821565b50505050905090565b600160008154809291906108e990611191565b9190505550565b600080fd5b600080fd5b600073ffffffffffffffffffffffffffffffffffffffff82169050919050565b6000610925826108fa565b9050919050565b6109358161091a565b811461094057600080fd5b50565b6000813590506109528161092c565b92915050565b60006020828403121561096e5761096d6108f0565b5b600061097c84828501610943565b91505092915050565b61098e8161091a565b82525050565b6000819050919050565b6109a781610994565b82525050565b600081519050919050565b600082825260208201905092915050565b60005b838110156109e75780820151818401526020810190506109cc565b60008484015250505050565b6000601f19601f8301169050919050565b6000610a0f826109ad565b610a1981856109b8565b9350610a298185602086016109c9565b610a32816109f3565b840191505092915050565b6000606082019050610a526000830186610985565b610a5f602083018561099e565b8181036040830152610a718184610a04565b9050949350505050565b600081519050919050565b600082825260208201905092915050565b6000819050602082019050919050565b610ab08161091a565b82525050565b6000610ac28383610aa7565b60208301905092915050565b6000602082019050919050565b6000610ae682610a7b565b610af08185610a86565b9350610afb83610a97565b8060005b83811015610b2c578151610b138882610ab6565b9750610b1e83610ace565b925050600181019050610aff565b5085935050505092915050565b60006020820190508181036000830152610b538184610adb565b905092915050565b610b6481610994565b8114610b6f57600080fd5b50565b600081359050610b8181610b5b565b92915050565b600060208284031215610b9d57610b9c6108f0565b5b6000610bab84828501610b72565b91505092915050565b6000602082019050610bc9600083018461099e565b92915050565b600080fd5b600080fd5b600080fd5b60008083601f840112610bf457610bf3610bcf565b5b8235905067ffffffffffffffff811115610c1157610c10610bd4565b5b602083019150836001820283011115610c2d57610c2c610bd9565b5b9250929050565b60008060208385031215610c4b57610c4a6108f0565b5b600083013567ffffffffffffffff811115610c6957610c686108f5565b5b610c7585828601610bde565b92509250509250929050565b6000602082019050610c966000830184610985565b92915050565b60006020820190508181036000830152610cb68184610a04565b905092915050565b600081519050919050565b600082825260208201905092915050565b6000819050602082019050919050565b600082825260208201905092915050565b6000610d06826109ad565b610d108185610cea565b9350610d208185602086016109c9565b610d29816109f3565b840191505092915050565b6000610d408383610cfb565b905092915050565b6000602082019050919050565b6000610d6082610cbe565b610d6a8185610cc9565b935083602082028501610d7c85610cda565b8060005b85811015610db85784840389528151610d998582610d34565b9450610da483610d48565b925060208a01995050600181019050610d80565b50829750879550505050505092915050565b60006020820190508181036000830152610de48184610d55565b905092915050565b7f4e487b7100000000000000000000000000000000000000000000000000000000600052602260045260246000fd5b60006002820490506001821680610e3357607f821691505b602082108103610e4657610e45610dec565b5b50919050565b600082905092915050565b7f4e487b7100000000000000000000000000000000000000000000000000000000600052604160045260246000fd5b60008190508160005260206000209050919050565b60006020601f8301049050919050565b600082821b905092915050565b600060088302610ee87fffffffffffffffffffffffffffffffffffffffffffffffffffffffffffffffff82610eab565b610ef28683610eab565b95508019841693508086168417925050509392505050565b6000819050919050565b6000610f2f610f2a610f2584610994565b610f0a565b610994565b9050919050565b6000819050919050565b610f4983610f14565b610f5d610f5582610f36565b848454610eb8565b825550505050565b600090565b610f72610f65565b610f7d818484610f40565b505050565b5b81811015610fa157610f96600082610f6a565b600181019050610f83565b5050565b601f821115610fe657610fb781610e86565b610fc084610e9b565b81016020851015610fcf578190505b610fe3610fdb85610e9b565b830182610f82565b50505b505050565b600082821c905092915050565b600061100960001984600802610feb565b1980831691505092915050565b60006110228383610ff8565b9150826002028217905092915050565b61103c8383610e4c565b67ffffffffffffffff81111561105557611054610e57565b5b61105f8254610e1b565b61106a828285610fa5565b6000601f8311600181146110995760008415611087578287013590505b6110918582611016565b8655506110f9565b601f1984166110a786610e86565b60005b828110156110cf578489013582556001820191506020850194506020810190506110aa565b868310156110ec57848901356110e8601f891682610ff8565b8355505b6001600288020188555050505b50505050505050565b82818337600083830152505050565b600061111d83856109b8565b935061112a838584611102565b611133836109f3565b840190509392505050565b60006020820190508181036000830152611159818486611111565b90509392505050565b7f4e487b7100000000000000000000000000000000000000000000000000000000600052601160045260246000fd5b600061119c82610994565b91507fffffffffffffffffffffffffffffffffffffffffffffffffffffffffffffffff82036111ce576111cd611162565b5b60018201905091905056fea2646970667358221220ac1783549a93fb7ecda7746944825ff209867bf2af8e4aa48c8bee15db37b87f64736f6c63430008110033",
  "linkReferences": {},
  "deployedLinkReferences": {}
}